{
  "contractName": "RabdomPick",
  "abi": [
    {
      "inputs": [],
      "stateMutability": "nonpayable",
      "type": "constructor"
    },
    {
      "anonymous": false,
      "inputs": [
        {
          "indexed": true,
          "internalType": "address",
          "name": "_pickAddr",
          "type": "address"
        },
        {
          "indexed": false,
          "internalType": "uint256",
          "name": "_pickItem",
          "type": "uint256"
        }
      ],
      "name": "bonusPickResult",
      "type": "event"
    },
    {
      "anonymous": false,
      "inputs": [
        {
          "indexed": true,
          "internalType": "address",
          "name": "_pickAddr",
          "type": "address"
        },
        {
          "indexed": true,
          "internalType": "uint256",
          "name": "_pickCount",
          "type": "uint256"
        },
        {
          "indexed": false,
          "internalType": "uint256",
          "name": "_pickItem",
          "type": "uint256"
        }
      ],
      "name": "pickResult",
      "type": "event"
    },
    {
      "inputs": [
        {
          "internalType": "uint256",
          "name": "",
          "type": "uint256"
        }
      ],
      "name": "itemList",
      "outputs": [
        {
          "internalType": "uint256",
          "name": "",
          "type": "uint256"
        }
      ],
      "stateMutability": "view",
      "type": "function",
      "constant": true
    },
    {
      "inputs": [
        {
          "internalType": "uint256",
          "name": "",
          "type": "uint256"
        }
      ],
      "name": "itemlistarr",
      "outputs": [
        {
          "internalType": "uint256",
          "name": "",
          "type": "uint256"
        }
      ],
      "stateMutability": "view",
      "type": "function",
      "constant": true
    },
    {
      "inputs": [
        {
          "internalType": "address",
          "name": "",
          "type": "address"
        },
        {
          "internalType": "uint256",
          "name": "",
          "type": "uint256"
        }
      ],
      "name": "itemsPerAddress",
      "outputs": [
        {
          "internalType": "uint256",
          "name": "",
          "type": "uint256"
        }
      ],
      "stateMutability": "view",
      "type": "function",
      "constant": true
    },
    {
      "stateMutability": "payable",
      "type": "receive",
      "payable": true
    },
    {
      "inputs": [],
      "name": "randomPick",
      "outputs": [],
      "stateMutability": "payable",
      "type": "function",
      "payable": true
    },
    {
      "inputs": [],
      "name": "bonusPick",
      "outputs": [],
      "stateMutability": "nonpayable",
      "type": "function"
    },
    {
      "inputs": [],
      "name": "randomItem",
      "outputs": [
        {
          "internalType": "uint256",
          "name": "",
          "type": "uint256"
        }
      ],
      "stateMutability": "view",
      "type": "function",
      "constant": true
    },
    {
      "inputs": [],
      "name": "getItemsPerAddress",
      "outputs": [
        {
          "internalType": "uint256[]",
          "name": "",
          "type": "uint256[]"
        }
      ],
      "stateMutability": "view",
      "type": "function",
      "constant": true
    }
  ],
  "bytecode": "0x6080604052604051806101400160405280600160ff168152602001600260ff168152602001600360ff168152602001600460ff168152602001600560ff168152602001600660ff168152602001600760ff168152602001600860ff168152602001600960ff168152602001600a60ff16815250600190600a6100829291906100d5565b5034801561008f57600080fd5b50336000806101000a81548173ffffffffffffffffffffffffffffffffffffffff021916908373ffffffffffffffffffffffffffffffffffffffff160217905550610137565b82600a8101928215610109579160200282015b82811115610108578251829060ff169055916020019190600101906100e8565b5b509050610116919061011a565b5090565b5b8082111561013357600081600090555060010161011b565b5090565b610b50806101466000396000f3fe6080604052600436106100745760003560e01c806376c6913d1161004e57806376c6913d146101375780638f6c72fa1461014e578063b92a188314610179578063d85ed0f4146101a45761007b565b80630b0fb4f3146100805780633d4d3600146100bd5780635f197913146100fa5761007b565b3661007b57005b600080fd5b34801561008c57600080fd5b506100a760048036038101906100a2919061076b565b6101ae565b6040516100b491906107ba565b60405180910390f35b3480156100c957600080fd5b506100e460048036038101906100df91906107d5565b6101df565b6040516100f191906107ba565b60405180910390f35b34801561010657600080fd5b50610121600480360381019061011c91906107d5565b6101fa565b60405161012e91906107ba565b60405180910390f35b34801561014357600080fd5b5061014c61021e565b005b34801561015a57600080fd5b506101636103a5565b60405161017091906107ba565b60405180910390f35b34801561018557600080fd5b5061018e610431565b60405161019b91906108c0565b60405180910390f35b6101ac6104c6565b005b600d60205281600052604060002081815481106101ca57600080fd5b90600052602060002001600091509150505481565b600181600a81106101ef57600080fd5b016000915090505481565b600b818154811061020a57600080fd5b906000526020600020016000915090505481565b60011515600f60003373ffffffffffffffffffffffffffffffffffffffff1673ffffffffffffffffffffffffffffffffffffffff16815260200190815260200160002060009054906101000a900460ff161515146102b1576040517f08c379a00000000000000000000000000000000000000000000000000000000081526004016102a89061093f565b60405180910390fd5b600060016102bd6103a5565b600a81106102ce576102cd61095f565b5b01549050600d60003373ffffffffffffffffffffffffffffffffffffffff1673ffffffffffffffffffffffffffffffffffffffff168152602001908152602001600020600161031b6103a5565b600a811061032c5761032b61095f565b5b015490806001815401808255809150506001900390600052602060002001600090919091909150553373ffffffffffffffffffffffffffffffffffffffff167f786591c8a94d59edfd6f65f55804171b29afce0727f29f9ec6d540b529092b528260405161039a91906107ba565b60405180910390a250565b60006001600a4442600e60003373ffffffffffffffffffffffffffffffffffffffff1673ffffffffffffffffffffffffffffffffffffffff168152602001908152602001600020546040516020016103ff939291906109af565b6040516020818303038152906040528051906020012060001c6104229190610a1b565b61042c9190610a7b565b905090565b6060600d60003373ffffffffffffffffffffffffffffffffffffffff1673ffffffffffffffffffffffffffffffffffffffff1681526020019081526020016000208054806020026020016040519081016040528092919081815260200182805480156104bc57602002820191906000526020600020905b8154815260200190600101908083116104a8575b5050505050905090565b66470de4df82000034146104d957600080fd5b600060016104e56103a5565b600a81106104f6576104f561095f565b5b01549050600d60003373ffffffffffffffffffffffffffffffffffffffff1673ffffffffffffffffffffffffffffffffffffffff16815260200190815260200160002060016105436103a5565b600a81106105545761055361095f565b5b01549080600181540180825580915050600190039060005260206000200160009091909190915055600e60003373ffffffffffffffffffffffffffffffffffffffff1673ffffffffffffffffffffffffffffffffffffffff168152602001908152602001600020543373ffffffffffffffffffffffffffffffffffffffff167f609d15c6965adc5ff846242540425836b9f9bbd75000b0ae85ba1c8d38ef5ec08360405161060291906107ba565b60405180910390a3600c600081548092919061061d90610ad1565b919050555060006005600e60003373ffffffffffffffffffffffffffffffffffffffff1673ffffffffffffffffffffffffffffffffffffffff168152602001908152602001600020546106709190610a1b565b14156106cf576001600f60003373ffffffffffffffffffffffffffffffffffffffff1673ffffffffffffffffffffffffffffffffffffffff16815260200190815260200160002060006101000a81548160ff0219169083151502179055505b50565b600080fd5b600073ffffffffffffffffffffffffffffffffffffffff82169050919050565b6000610702826106d7565b9050919050565b610712816106f7565b811461071d57600080fd5b50565b60008135905061072f81610709565b92915050565b6000819050919050565b61074881610735565b811461075357600080fd5b50565b6000813590506107658161073f565b92915050565b60008060408385031215610782576107816106d2565b5b600061079085828601610720565b92505060206107a185828601610756565b9150509250929050565b6107b481610735565b82525050565b60006020820190506107cf60008301846107ab565b92915050565b6000602082840312156107eb576107ea6106d2565b5b60006107f984828501610756565b91505092915050565b600081519050919050565b600082825260208201905092915050565b6000819050602082019050919050565b61083781610735565b82525050565b6000610849838361082e565b60208301905092915050565b6000602082019050919050565b600061086d82610802565b610877818561080d565b93506108828361081e565b8060005b838110156108b357815161089a888261083d565b97506108a583610855565b925050600181019050610886565b5085935050505092915050565b600060208201905081810360008301526108da8184610862565b905092915050565b600082825260208201905092915050565b7f796f7520617265206e6f7420626f6e7573207475726e00000000000000000000600082015250565b60006109296016836108e2565b9150610934826108f3565b602082019050919050565b600060208201905081810360008301526109588161091c565b9050919050565b7f4e487b7100000000000000000000000000000000000000000000000000000000600052603260045260246000fd5b6000819050919050565b6109a96109a482610735565b61098e565b82525050565b60006109bb8286610998565b6020820191506109cb8285610998565b6020820191506109db8284610998565b602082019150819050949350505050565b7f4e487b7100000000000000000000000000000000000000000000000000000000600052601260045260246000fd5b6000610a2682610735565b9150610a3183610735565b925082610a4157610a406109ec565b5b828206905092915050565b7f4e487b7100000000000000000000000000000000000000000000000000000000600052601160045260246000fd5b6000610a8682610735565b9150610a9183610735565b9250827fffffffffffffffffffffffffffffffffffffffffffffffffffffffffffffffff03821115610ac657610ac5610a4c565b5b828201905092915050565b6000610adc82610735565b91507fffffffffffffffffffffffffffffffffffffffffffffffffffffffffffffffff821415610b0f57610b0e610a4c565b5b60018201905091905056fea2646970667358221220c676d659d6b7d1edaf1d527a5295d6d0c14909eb03c82cee71e7cb3a363c841164736f6c634300080c0033",
  "immutableReferences": {},
  "source": "// SPDX-License-Identifier: MIT\npragma solidity ^0.8.0;\n\ncontract RabdomPick {\n\n    event pickResult(address indexed _pickAddr, uint indexed _pickCount, uint _pickItem);\n    event bonusPickResult(address indexed _pickAddr, uint _pickItem);\n\n    address private owner;\n\n    constructor  (){\n        owner = msg.sender;\n    }\n\n    receive()external payable {}\n    \n    uint[10] public itemList = [1,2,3,4,5,6,7,8,9,10];\n    uint[] public itemlistarr;\n    uint private turn;\n    mapping(address=>uint[]) public itemsPerAddress; // \n    mapping(address=>uint) private pickCountPerAddress; //  \n    mapping(address=>bool) private bonusTurn;\n\n\n\n    function randomPick () public payable {\n        require(msg.value == 2*10**16);\n        uint random = itemList[randomItem()];\n        itemsPerAddress[msg.sender].push(itemList[randomItem()]);\n\n        emit pickResult(msg.sender, pickCountPerAddress[msg.sender], random);\n        turn++;\n        if(pickCountPerAddress[msg.sender] % 5 == 0){\n            bonusTurn[msg.sender] = true;\n        }\n    }\n\n    function bonusPick() public {\n        require(bonusTurn[msg.sender]==true,\"you are not bonus turn\");\n        uint bonus = itemList[randomItem()];\n        itemsPerAddress[msg.sender].push(itemList[randomItem()]);\n        emit bonusPickResult(msg.sender,bonus);\n    }\n\n    // \n    function randomItem() public view returns(uint){\n        return  uint(keccak256(abi.encodePacked(block.difficulty, block.timestamp, pickCountPerAddress[msg.sender]))) % 10 + 1;\n    }\n\n    function getItemsPerAddress() public view returns(uint[] memory){\n        return itemsPerAddress[msg.sender];\n    }\n\n}\n",
  "sourcePath": "C:\\solidity_github\\test\\randomPick\\contracts\\RabdomPick.sol",
  "compiler": {
    "name": "solc",
    "version": "0.8.12+commit.f00d7308.Emscripten.clang"
  },
  "schemaVersion": "3.4.4",
  "updatedAt": "2022-03-02T13:47:46.623Z",
  "networkType": "ethereum",
  "devdoc": {
    "kind": "dev",
    "methods": {},
    "version": 1
  },
  "userdoc": {
    "kind": "user",
    "methods": {},
    "version": 1
  }
}