{
  "contractName": "RabdomPick",
  "abi": [
    {
      "inputs": [],
      "stateMutability": "nonpayable",
      "type": "constructor"
    },
    {
      "anonymous": false,
      "inputs": [
        {
          "indexed": true,
          "internalType": "address",
          "name": "_pickAddr",
          "type": "address"
        },
        {
          "indexed": false,
          "internalType": "uint256",
          "name": "_pickItem",
          "type": "uint256"
        }
      ],
      "name": "bonusPickResult",
      "type": "event"
    },
    {
      "anonymous": false,
      "inputs": [
        {
          "indexed": true,
          "internalType": "address",
          "name": "_pickAddr",
          "type": "address"
        },
        {
          "indexed": true,
          "internalType": "uint256",
          "name": "_pickCount",
          "type": "uint256"
        },
        {
          "indexed": false,
          "internalType": "uint256",
          "name": "_pickItem",
          "type": "uint256"
        }
      ],
      "name": "pickResult",
      "type": "event"
    },
    {
      "inputs": [
        {
          "internalType": "uint256",
          "name": "",
          "type": "uint256"
        }
      ],
      "name": "itemList",
      "outputs": [
        {
          "internalType": "uint256",
          "name": "",
          "type": "uint256"
        }
      ],
      "stateMutability": "view",
      "type": "function",
      "constant": true
    },
    {
      "inputs": [
        {
          "internalType": "address",
          "name": "",
          "type": "address"
        },
        {
          "internalType": "uint256",
          "name": "",
          "type": "uint256"
        }
      ],
      "name": "itemsPerAddress",
      "outputs": [
        {
          "internalType": "uint256",
          "name": "",
          "type": "uint256"
        }
      ],
      "stateMutability": "view",
      "type": "function",
      "constant": true
    },
    {
      "stateMutability": "payable",
      "type": "receive",
      "payable": true
    },
    {
      "inputs": [],
      "name": "randomPick",
      "outputs": [],
      "stateMutability": "payable",
      "type": "function",
      "payable": true
    },
    {
      "inputs": [],
      "name": "bonusPick",
      "outputs": [],
      "stateMutability": "nonpayable",
      "type": "function"
    },
    {
      "inputs": [],
      "name": "randomItem",
      "outputs": [
        {
          "internalType": "uint256",
          "name": "",
          "type": "uint256"
        }
      ],
      "stateMutability": "view",
      "type": "function",
      "constant": true
    },
    {
      "inputs": [],
      "name": "getItemsPerAddress",
      "outputs": [
        {
          "internalType": "uint256[]",
          "name": "",
          "type": "uint256[]"
        }
      ],
      "stateMutability": "view",
      "type": "function",
      "constant": true
    }
  ],
  "bytecode": "0x6080604052604051806101400160405280600160ff168152602001600260ff168152602001600360ff168152602001600460ff168152602001600560ff168152602001600660ff168152602001600760ff168152602001600860ff168152602001600960ff168152602001600a60ff16815250600190600a6100829291906100d5565b5034801561008f57600080fd5b50336000806101000a81548173ffffffffffffffffffffffffffffffffffffffff021916908373ffffffffffffffffffffffffffffffffffffffff160217905550610137565b82600a8101928215610109579160200282015b82811115610108578251829060ff169055916020019190600101906100e8565b5b509050610116919061011a565b5090565b5b8082111561013357600081600090555060010161011b565b5090565b610b5e806101466000396000f3fe6080604052600436106100595760003560e01c80630b0fb4f3146100655780633d4d3600146100a257806376c6913d146100df5780638f6c72fa146100f6578063b92a188314610121578063d85ed0f41461014c57610060565b3661006057005b600080fd5b34801561007157600080fd5b5061008c60048036038101906100879190610768565b610156565b60405161009991906107b7565b60405180910390f35b3480156100ae57600080fd5b506100c960048036038101906100c491906107d2565b610187565b6040516100d691906107b7565b60405180910390f35b3480156100eb57600080fd5b506100f46101a2565b005b34801561010257600080fd5b5061010b61037d565b60405161011891906107b7565b60405180910390f35b34801561012d57600080fd5b5061013661040d565b60405161014391906108bd565b60405180910390f35b6101546104a2565b005b600c602052816000526040600020818154811061017257600080fd5b90600052602060002001600091509150505481565b600181600a811061019757600080fd5b016000915090505481565b60011515600e60003373ffffffffffffffffffffffffffffffffffffffff1673ffffffffffffffffffffffffffffffffffffffff16815260200190815260200160002060009054906101000a900460ff16151514610235576040517f08c379a000000000000000000000000000000000000000000000000000000000815260040161022c9061093c565b60405180910390fd5b600b60008154809291906102489061098b565b91905055506000600161025961037d565b600a811061026a576102696109d4565b5b01549050600c60003373ffffffffffffffffffffffffffffffffffffffff1673ffffffffffffffffffffffffffffffffffffffff1681526020019081526020016000208190806001815401808255809150506001900390600052602060002001600090919091909150553373ffffffffffffffffffffffffffffffffffffffff167f786591c8a94d59edfd6f65f55804171b29afce0727f29f9ec6d540b529092b528260405161031a91906107b7565b60405180910390a26000600e60003373ffffffffffffffffffffffffffffffffffffffff1673ffffffffffffffffffffffffffffffffffffffff16815260200190815260200160002060006101000a81548160ff02191690831515021790555050565b60006001600a4442600b54600d60003373ffffffffffffffffffffffffffffffffffffffff1673ffffffffffffffffffffffffffffffffffffffff168152602001908152602001600020546040516020016103db9493929190610a24565b6040516020818303038152906040528051906020012060001c6103fe9190610aa1565b6104089190610ad2565b905090565b6060600c60003373ffffffffffffffffffffffffffffffffffffffff1673ffffffffffffffffffffffffffffffffffffffff16815260200190815260200160002080548060200260200160405190810160405280929190818152602001828054801561049857602002820191906000526020600020905b815481526020019060010190808311610484575b5050505050905090565b66470de4df82000034146104b557600080fd5b600060016104c161037d565b600a81106104d2576104d16109d4565b5b01549050600c60003373ffffffffffffffffffffffffffffffffffffffff1673ffffffffffffffffffffffffffffffffffffffff168152602001908152602001600020819080600181540180825580915050600190039060005260206000200160009091909190915055600d60003373ffffffffffffffffffffffffffffffffffffffff1673ffffffffffffffffffffffffffffffffffffffff168152602001908152602001600020600081548092919061058c9061098b565b9190505550600d60003373ffffffffffffffffffffffffffffffffffffffff1673ffffffffffffffffffffffffffffffffffffffff168152602001908152602001600020543373ffffffffffffffffffffffffffffffffffffffff167f609d15c6965adc5ff846242540425836b9f9bbd75000b0ae85ba1c8d38ef5ec08360405161061791906107b7565b60405180910390a360006005600d60003373ffffffffffffffffffffffffffffffffffffffff1673ffffffffffffffffffffffffffffffffffffffff1681526020019081526020016000205461066d9190610aa1565b14156106cc576001600e60003373ffffffffffffffffffffffffffffffffffffffff1673ffffffffffffffffffffffffffffffffffffffff16815260200190815260200160002060006101000a81548160ff0219169083151502179055505b50565b600080fd5b600073ffffffffffffffffffffffffffffffffffffffff82169050919050565b60006106ff826106d4565b9050919050565b61070f816106f4565b811461071a57600080fd5b50565b60008135905061072c81610706565b92915050565b6000819050919050565b61074581610732565b811461075057600080fd5b50565b6000813590506107628161073c565b92915050565b6000806040838503121561077f5761077e6106cf565b5b600061078d8582860161071d565b925050602061079e85828601610753565b9150509250929050565b6107b181610732565b82525050565b60006020820190506107cc60008301846107a8565b92915050565b6000602082840312156107e8576107e76106cf565b5b60006107f684828501610753565b91505092915050565b600081519050919050565b600082825260208201905092915050565b6000819050602082019050919050565b61083481610732565b82525050565b6000610846838361082b565b60208301905092915050565b6000602082019050919050565b600061086a826107ff565b610874818561080a565b935061087f8361081b565b8060005b838110156108b0578151610897888261083a565b97506108a283610852565b925050600181019050610883565b5085935050505092915050565b600060208201905081810360008301526108d7818461085f565b905092915050565b600082825260208201905092915050565b7f796f7520617265206e6f7420626f6e7573207475726e00000000000000000000600082015250565b60006109266016836108df565b9150610931826108f0565b602082019050919050565b6000602082019050818103600083015261095581610919565b9050919050565b7f4e487b7100000000000000000000000000000000000000000000000000000000600052601160045260246000fd5b600061099682610732565b91507fffffffffffffffffffffffffffffffffffffffffffffffffffffffffffffffff8214156109c9576109c861095c565b5b600182019050919050565b7f4e487b7100000000000000000000000000000000000000000000000000000000600052603260045260246000fd5b6000819050919050565b610a1e610a1982610732565b610a03565b82525050565b6000610a308287610a0d565b602082019150610a408286610a0d565b602082019150610a508285610a0d565b602082019150610a608284610a0d565b60208201915081905095945050505050565b7f4e487b7100000000000000000000000000000000000000000000000000000000600052601260045260246000fd5b6000610aac82610732565b9150610ab783610732565b925082610ac757610ac6610a72565b5b828206905092915050565b6000610add82610732565b9150610ae883610732565b9250827fffffffffffffffffffffffffffffffffffffffffffffffffffffffffffffffff03821115610b1d57610b1c61095c565b5b82820190509291505056fea26469706673582212200ca472890b9566931ef015f1fc9c71937aa78f4534b688e25d143701e0db53bb64736f6c634300080c0033",
  "immutableReferences": {},
  "source": "// SPDX-License-Identifier: MIT\npragma solidity ^0.8.0;\n\ncontract RabdomPick {\n\n    event pickResult(address indexed _pickAddr, uint indexed _pickCount, uint _pickItem);\n    event bonusPickResult(address indexed _pickAddr, uint _pickItem);\n\n    address private owner;\n\n    constructor  (){\n        owner = msg.sender;\n    }\n\n    receive()external payable {} // \n    \n    //  \n    uint[10] public itemList = [1,2,3,4,5,6,7,8,9,10];\n\n    uint private pickCount; //  \n    mapping(address=>uint[]) public itemsPerAddress; // \n    mapping(address=>uint) private pickCountPerAddress; //  \n    mapping(address=>bool) private bonusTurn; //  \n\n\n\n    function randomPick () public payable {\n        require(msg.value == 2*10**16);\n        uint random = itemList[randomItem()];\n        itemsPerAddress[msg.sender].push(random);\n\n        pickCountPerAddress[msg.sender]++;\n\n        emit pickResult(msg.sender, pickCountPerAddress[msg.sender], random);\n\n        if(pickCountPerAddress[msg.sender] % 5 == 0){\n            bonusTurn[msg.sender] = true;\n        }\n    }\n\n    function bonusPick() public {\n        require(bonusTurn[msg.sender]==true,\"you are not bonus turn\");\n        pickCount++;\n        uint bonus = itemList[randomItem()];\n        itemsPerAddress[msg.sender].push(bonus);\n        emit bonusPickResult(msg.sender,bonus);\n        bonusTurn[msg.sender] = false;\n    }\n\n    // \n    function randomItem() public view returns(uint){\n        return  uint(keccak256(abi.encodePacked(block.difficulty, block.timestamp, pickCount, pickCountPerAddress[msg.sender]))) % 10 + 1;\n    }\n\n    function getItemsPerAddress() public view returns(uint[] memory){\n        return itemsPerAddress[msg.sender];\n    }\n\n}\n",
  "sourcePath": "C:\\solidity_github\\test\\randomPick\\contracts\\RabdomPick.sol",
  "compiler": {
    "name": "solc",
    "version": "0.8.12+commit.f00d7308.Emscripten.clang"
  },
  "schemaVersion": "3.4.4",
  "updatedAt": "2022-03-03T01:46:30.861Z",
  "networkType": "ethereum",
  "devdoc": {
    "kind": "dev",
    "methods": {},
    "version": 1
  },
  "userdoc": {
    "kind": "user",
    "methods": {},
    "version": 1
  }
}